:020000040000FA
:020000000E28C8
:10000800FE00030E83120313A9000408AA000A08BD
:10001800AB00582A0F28ED23B500EE23B600EF23D6
:10002800B700F023B800F123B900F223BA00F32394
:10003800BB00F423BC00F523BD00F623BE00F72364
:10004800BF00F823C000F923C100FA23C200FB2334
:10005800C300FC23C400FD23C500FE23C600FF2304
:10006800C700C801C901CA01CB01CC01CD01CE012D
:10007800CF01D001D101D201830142280924D8231C
:10008800C83083120313AF000030B000002483127D
:100098000313851F5028512854288B1385014B289A
:1000A800FF3085004D084E04031D5B285C283E2A5E
:1000B8008B13B4011E308500023083120313B30082
:1000C8000430B200BA30B100B10B6828B20B68280E
:1000D800B30B6828831203138501023083120313BC
:1000E800B3000430B200BA30B100B10B7928B20BBA
:1000F8007928B30B79281530831203138500023051
:1001080083120313B3000430B200BA30B100B10B4C
:100118008B28B20B8B28B30B8B280A30831203135E
:100128008500023083120313B3000430B200BA30E2
:10013800B100B10B9D28B20B9D28B30B9D281F3031
:10014800831203138500023083120313B3000430B3
:10015800B200BA30B100B10BAF28B20BAF28B30B65
:10016800AF280F3083120313850002308312031364
:10017800B3000430B200BA30B100B10BC128B20BE1
:10018800C128B30BC128173083120313850002302E
:1001980083120313B3000430B200BA30B100B10BBC
:1001A800D328B20BD328B30BD3281B3083120313E5
:1001B8008500023083120313B3000430B200BA3052
:1001C800B100B10BE528B20BE528B30BE5281D30CB
:1001D800831203138500023083120313B300043023
:1001E800B200BA30B100B10BF728B20BF728B30B45
:1001F800F7281E308312031385000230831203137D
:10020800B3000430B200BA30B100B10B0929B20B07
:100218000929B30B09291030831203138500023012
:1002280083120313B3000430B200BA30B100B10B2B
:100238001B29B20B1B29B30B1B290830831203138C
:100248008500023083120313B3000430B200BA30C1
:10025800B100B10B2D29B20B2D29B30B2D29043078
:10026800831203138500023083120313B300043092
:10027800B200BA30B100B10B3F29B20B3F29B30B22
:100288003F290230831203138500023083120313BF
:10029800B3000430B200BA30B100B10B5129B20B2F
:1002A8005129B30B51290130831203138500023001
:1002B80083120313B3000430B200BA30B100B10B9B
:1002C8006329B20B6329B30B6329831203138501D6
:1002D800023083120313B3000430B200BA30B10005
:1002E800B10B7429B20B7429B30B74290130831232
:1002F80003138500023083120313B3000430B200E5
:10030800BA30B100B10B8629B20B8629B30B862906
:100318000330831203138500023083120313B300E2
:100328000430B200BA30B100B10B9829B20B982949
:10033800B30B982906308312031385000230831209
:100348000313B3000430B200BA30B100B10BAA29CC
:10035800B20BAA29B30BAA290C3083120313850008
:10036800023083120313B3000430B200BA30B10074
:10037800B10BBC29B20BBC29B30BBC2918308312B2
:1003880003138500023083120313B3000430B20054
:10039800BA30B100B10BCE29B20BCE29B30BCE299E
:1003A8000730831203138500023083120313B3004E
:1003B8000430B200BA30B100B10BE029B20BE02929
:1003C800B30BE02913308312031385000230831224
:1003D8000313B3000430B200BA30B100B10BF229F4
:1003E800B20BF229B30BF2291930831203138500DB
:1003F800023083120313B3000430B200BA30B100E4
:10040800B10B042AB20B042AB30B042A1C30831242
:1004180003138500023083120313B3000430B200C3
:10042800BA30B100B10B162AB20B162AB30B162A32
:100438001E30831203138500023083120313B300A6
:100448000430B200BA30B100B10B282AB20B282A06
:10045800B30B282A013083120313B1003108B40703
:1004680004303402031C392A3A2A5E280A30CD00A7
:100478000030CE008B17063083120313B3001330FD
:10048800B200AD30B100B10B472AB20B472AB30B0B
:10049800472A0000FF3083120313CD070318CE0A42
:1004A800FF30CE074B280E280B1C5B2A5C2A462BF4
:1004B800D201AD012D083A020318632A642A662A7C
:1004C8000510672A05142D083B0203186C2A6D2AAB
:1004D8006F2A8510702A85142D083C020318752A86
:1004E800762A782A0511792A05152D083D02031860
:1004F8007E2A7F2A812A8511822A85152D083E02A7
:100508000318872A882A8A2A05128B2A0516013099
:10051800A7002708AD07A8302D02031C942A952AA6
:100528005E2AAE012E08483E840083130008031D8E
:100538009E2A9F2AAF2A2E083F3E84000008031DEA
:10054800A62AA72AAF2AA830A7002E083A3E840078
:1005580027088000FC2A2E08483E84000008031D56
:10056800B62AB72AD22A2E083F3E84000003031D6C
:10057800BE2ABF2AD22A2E083A3E840001308002C1
:100588002E083A3E84000008031DCB2ACC2AFC2AF8
:100598002E08483E84008001800AFC2A2E08483E26
:1005A80084000003031DD92ADA2AF72A2E083F3EC1
:1005B80084000008031DE12AE22AF72A0130A70077
:1005C8002E083A3E8400270880072E083A3E840009
:1005D800A8300006031DF12AF22AFC2A2E08483EFC
:1005E80084008001FC2A2E083A3E84008001FC2AFF
:1005F8000130A7002708AE0705302E02031C052B83
:10060800062B962A0130CF070318D00A0030D007EE
:10061800A8304F065004031D122B132B442BCF0177
:10062800D001AC019523831203132C08353E8400B6
:1006380083130008A700510A232B0310A70CFF3EC1
:10064800031D212B270820040139A8002C083F3E50
:100658008400280880000130A7002708AC0705306F
:100668002C02031C382B392B162B0130A700270826
:10067800D10708305102031C422B432B442BD101D4
:1006880006080B102B088A002A088400290E83000C
:10069800FE0E7E0E09000030FC000030FB0000302A
:1006A800FA000030F900701C5A2B5B2B722B74086F
:1006B800F907750803110318013E0319642BFA079B
:1006C800760803110318013E03196B2BFB07770803
:1006D80003110318013E0319722BFC070130F800BF
:1006E8000310F40DF50DF60DF70DF80B742B013012
:1006F8000310F30CF20CF10CF00CFF3E031D7C2BE5
:100708007308720471047004031D8B2B8C2B572BF8
:100718007C08F3007B08F2007A08F1007908F00001
:100728000800831203134708F3004608F20045083F
:10073800F1004408F0004130F700C630F6004E30B2
:10074800F5006D30F4004F23730883120313C700BC
:100758007208C6007108C5007008C4003930C407A3
:10076800303003183130C507003003180130C60790
:10077800003003180130C7074408A2004508A30049
:100788004608A4004708A5001030A600250DA50CB2
:10079800A40CA30CA20CA60BCA2BFF302205A000A8
:1007A8007F302305A10008000730831203139F0040
:1007B8008030831603138500F03086007F30831263
:1007C80003138500860188308B00831603138C0180
:1007D8000800EE345534AB3455345534A834A834B5
:1007E800A834A834A8340134013401340134013464
:1007F8000134003400340034831203132F08C4007A
:0C0808003008C500C601C7010800080048
:02400E0018FF99
:00000001FF
